{
  "_format": "hh-sol-artifact-1",
  "contractName": "Identity",
  "sourceName": "contracts/Identity.sol",
  "abi": [
    {
      "inputs": [],
      "stateMutability": "nonpayable",
      "type": "constructor"
    },
    {
      "anonymous": false,
      "inputs": [
        {
          "indexed": true,
          "internalType": "address",
          "name": "user",
          "type": "address"
        },
        {
          "indexed": false,
          "internalType": "string",
          "name": "name",
          "type": "string"
        }
      ],
      "name": "IdentityCreated",
      "type": "event"
    },
    {
      "anonymous": false,
      "inputs": [
        {
          "indexed": true,
          "internalType": "address",
          "name": "user",
          "type": "address"
        }
      ],
      "name": "IdentityVerified",
      "type": "event"
    },
    {
      "inputs": [],
      "name": "admin",
      "outputs": [
        {
          "internalType": "address",
          "name": "",
          "type": "address"
        }
      ],
      "stateMutability": "view",
      "type": "function"
    },
    {
      "inputs": [
        {
          "internalType": "string",
          "name": "_name",
          "type": "string"
        },
        {
          "internalType": "string",
          "name": "_ipfsHash",
          "type": "string"
        }
      ],
      "name": "createIdentity",
      "outputs": [],
      "stateMutability": "nonpayable",
      "type": "function"
    },
    {
      "inputs": [],
      "name": "getAllUsers",
      "outputs": [
        {
          "internalType": "address[]",
          "name": "",
          "type": "address[]"
        }
      ],
      "stateMutability": "view",
      "type": "function"
    },
    {
      "inputs": [
        {
          "internalType": "address",
          "name": "_user",
          "type": "address"
        }
      ],
      "name": "getIdentity",
      "outputs": [
        {
          "components": [
            {
              "internalType": "string",
              "name": "name",
              "type": "string"
            },
            {
              "internalType": "string",
              "name": "ipfsHash",
              "type": "string"
            },
            {
              "internalType": "bool",
              "name": "isVerified",
              "type": "bool"
            },
            {
              "internalType": "address",
              "name": "walletAddress",
              "type": "address"
            }
          ],
          "internalType": "struct Identity.UserIdentity",
          "name": "",
          "type": "tuple"
        }
      ],
      "stateMutability": "view",
      "type": "function"
    },
    {
      "inputs": [
        {
          "internalType": "address",
          "name": "",
          "type": "address"
        }
      ],
      "name": "identities",
      "outputs": [
        {
          "internalType": "string",
          "name": "name",
          "type": "string"
        },
        {
          "internalType": "string",
          "name": "ipfsHash",
          "type": "string"
        },
        {
          "internalType": "bool",
          "name": "isVerified",
          "type": "bool"
        },
        {
          "internalType": "address",
          "name": "walletAddress",
          "type": "address"
        }
      ],
      "stateMutability": "view",
      "type": "function"
    },
    {
      "inputs": [
        {
          "internalType": "uint256",
          "name": "",
          "type": "uint256"
        }
      ],
      "name": "userAddresses",
      "outputs": [
        {
          "internalType": "address",
          "name": "",
          "type": "address"
        }
      ],
      "stateMutability": "view",
      "type": "function"
    },
    {
      "inputs": [
        {
          "internalType": "address",
          "name": "_user",
          "type": "address"
        }
      ],
      "name": "verifyIdentity",
      "outputs": [],
      "stateMutability": "nonpayable",
      "type": "function"
    }
  ],
  "bytecode": "0x608060405234801561001057600080fd5b50336000806101000a81548173ffffffffffffffffffffffffffffffffffffffff021916908373ffffffffffffffffffffffffffffffffffffffff160217905550611368806100606000396000f3fe608060405234801561001057600080fd5b506004361061007d5760003560e01c8063b5b90fd91161005b578063b5b90fd9146100fe578063e2842d791461011a578063f653b81e14610138578063f851a4401461016b5761007d565b80632fea7b8114610082578063502c9bd5146100b2578063a309e6e1146100e2575b600080fd5b61009c60048036038101906100979190610a0a565b610189565b6040516100a99190610b5b565b60405180910390f35b6100cc60048036038101906100c79190610bb3565b610377565b6040516100d99190610bef565b60405180910390f35b6100fc60048036038101906100f79190610d3f565b6103b6565b005b61011860048036038101906101139190610a0a565b61060b565b005b610122610739565b60405161012f9190610e66565b60405180910390f35b610152600480360381019061014d9190610a0a565b6107c7565b6040516101629493929190610ee1565b60405180910390f35b610173610934565b6040516101809190610bef565b60405180910390f35b610191610958565b600160008373ffffffffffffffffffffffffffffffffffffffff1673ffffffffffffffffffffffffffffffffffffffff1681526020019081526020016000206040518060800160405290816000820180546101eb90610f63565b80601f016020809104026020016040519081016040528092919081815260200182805461021790610f63565b80156102645780601f1061023957610100808354040283529160200191610264565b820191906000526020600020905b81548152906001019060200180831161024757829003601f168201915b5050505050815260200160018201805461027d90610f63565b80601f01602080910402602001604051908101604052809291908181526020018280546102a990610f63565b80156102f65780601f106102cb576101008083540402835291602001916102f6565b820191906000526020600020905b8154815290600101906020018083116102d957829003601f168201915b505050505081526020016002820160009054906101000a900460ff161515151581526020016002820160019054906101000a900473ffffffffffffffffffffffffffffffffffffffff1673ffffffffffffffffffffffffffffffffffffffff1673ffffffffffffffffffffffffffffffffffffffff16815250509050919050565b6002818154811061038757600080fd5b906000526020600020016000915054906101000a900473ffffffffffffffffffffffffffffffffffffffff1681565b6000600160003373ffffffffffffffffffffffffffffffffffffffff1673ffffffffffffffffffffffffffffffffffffffff168152602001908152602001600020600001805461040590610f63565b905014610447576040517f08c379a000000000000000000000000000000000000000000000000000000000815260040161043e90610fe0565b60405180910390fd5b60405180608001604052808381526020018281526020016000151581526020013373ffffffffffffffffffffffffffffffffffffffff16815250600160003373ffffffffffffffffffffffffffffffffffffffff1673ffffffffffffffffffffffffffffffffffffffff16815260200190815260200160002060008201518160000190816104d591906111ac565b5060208201518160010190816104eb91906111ac565b5060408201518160020160006101000a81548160ff02191690831515021790555060608201518160020160016101000a81548173ffffffffffffffffffffffffffffffffffffffff021916908373ffffffffffffffffffffffffffffffffffffffff1602179055509050506002339080600181540180825580915050600190039060005260206000200160009091909190916101000a81548173ffffffffffffffffffffffffffffffffffffffff021916908373ffffffffffffffffffffffffffffffffffffffff1602179055503373ffffffffffffffffffffffffffffffffffffffff167fc935904fde3b784f003631fba58f14c99e3135ec5e11d22997ff5aca198f9474836040516105ff919061127e565b60405180910390a25050565b60008054906101000a900473ffffffffffffffffffffffffffffffffffffffff1673ffffffffffffffffffffffffffffffffffffffff163373ffffffffffffffffffffffffffffffffffffffff1614610699576040517f08c379a000000000000000000000000000000000000000000000000000000000815260040161069090611312565b60405180910390fd5b60018060008373ffffffffffffffffffffffffffffffffffffffff1673ffffffffffffffffffffffffffffffffffffffff16815260200190815260200160002060020160006101000a81548160ff0219169083151502179055508073ffffffffffffffffffffffffffffffffffffffff167f02f93fdaafad8edad1ca75101b1fbda62e64ab9afc26d0ea801ccf6ef02c09ab60405160405180910390a250565b606060028054806020026020016040519081016040528092919081815260200182805480156107bd57602002820191906000526020600020905b8160009054906101000a900473ffffffffffffffffffffffffffffffffffffffff1673ffffffffffffffffffffffffffffffffffffffff1681526020019060010190808311610773575b5050505050905090565b60016020528060005260406000206000915090508060000180546107ea90610f63565b80601f016020809104026020016040519081016040528092919081815260200182805461081690610f63565b80156108635780601f1061083857610100808354040283529160200191610863565b820191906000526020600020905b81548152906001019060200180831161084657829003601f168201915b50505050509080600101805461087890610f63565b80601f01602080910402602001604051908101604052809291908181526020018280546108a490610f63565b80156108f15780601f106108c6576101008083540402835291602001916108f1565b820191906000526020600020905b8154815290600101906020018083116108d457829003601f168201915b5050505050908060020160009054906101000a900460ff16908060020160019054906101000a900473ffffffffffffffffffffffffffffffffffffffff16905084565b60008054906101000a900473ffffffffffffffffffffffffffffffffffffffff1681565b60405180608001604052806060815260200160608152602001600015158152602001600073ffffffffffffffffffffffffffffffffffffffff1681525090565b6000604051905090565b600080fd5b600080fd5b600073ffffffffffffffffffffffffffffffffffffffff82169050919050565b60006109d7826109ac565b9050919050565b6109e7816109cc565b81146109f257600080fd5b50565b600081359050610a04816109de565b92915050565b600060208284031215610a2057610a1f6109a2565b5b6000610a2e848285016109f5565b91505092915050565b600081519050919050565b600082825260208201905092915050565b60005b83811015610a71578082015181840152602081019050610a56565b60008484015250505050565b6000601f19601f8301169050919050565b6000610a9982610a37565b610aa38185610a42565b9350610ab3818560208601610a53565b610abc81610a7d565b840191505092915050565b60008115159050919050565b610adc81610ac7565b82525050565b610aeb816109cc565b82525050565b60006080830160008301518482036000860152610b0e8282610a8e565b91505060208301518482036020860152610b288282610a8e565b9150506040830151610b3d6040860182610ad3565b506060830151610b506060860182610ae2565b508091505092915050565b60006020820190508181036000830152610b758184610af1565b905092915050565b6000819050919050565b610b9081610b7d565b8114610b9b57600080fd5b50565b600081359050610bad81610b87565b92915050565b600060208284031215610bc957610bc86109a2565b5b6000610bd784828501610b9e565b91505092915050565b610be9816109cc565b82525050565b6000602082019050610c046000830184610be0565b92915050565b600080fd5b600080fd5b7f4e487b7100000000000000000000000000000000000000000000000000000000600052604160045260246000fd5b610c4c82610a7d565b810181811067ffffffffffffffff82111715610c6b57610c6a610c14565b5b80604052505050565b6000610c7e610998565b9050610c8a8282610c43565b919050565b600067ffffffffffffffff821115610caa57610ca9610c14565b5b610cb382610a7d565b9050602081019050919050565b82818337600083830152505050565b6000610ce2610cdd84610c8f565b610c74565b905082815260208101848484011115610cfe57610cfd610c0f565b5b610d09848285610cc0565b509392505050565b600082601f830112610d2657610d25610c0a565b5b8135610d36848260208601610ccf565b91505092915050565b60008060408385031215610d5657610d556109a2565b5b600083013567ffffffffffffffff811115610d7457610d736109a7565b5b610d8085828601610d11565b925050602083013567ffffffffffffffff811115610da157610da06109a7565b5b610dad85828601610d11565b9150509250929050565b600081519050919050565b600082825260208201905092915050565b6000819050602082019050919050565b6000610def8383610ae2565b60208301905092915050565b6000602082019050919050565b6000610e1382610db7565b610e1d8185610dc2565b9350610e2883610dd3565b8060005b83811015610e59578151610e408882610de3565b9750610e4b83610dfb565b925050600181019050610e2c565b5085935050505092915050565b60006020820190508181036000830152610e808184610e08565b905092915050565b600082825260208201905092915050565b6000610ea482610a37565b610eae8185610e88565b9350610ebe818560208601610a53565b610ec781610a7d565b840191505092915050565b610edb81610ac7565b82525050565b60006080820190508181036000830152610efb8187610e99565b90508181036020830152610f0f8186610e99565b9050610f1e6040830185610ed2565b610f2b6060830184610be0565b95945050505050565b7f4e487b7100000000000000000000000000000000000000000000000000000000600052602260045260246000fd5b60006002820490506001821680610f7b57607f821691505b602082108103610f8e57610f8d610f34565b5b50919050565b7f4964656e7469747920616c726561647920657869737473000000000000000000600082015250565b6000610fca601783610e88565b9150610fd582610f94565b602082019050919050565b60006020820190508181036000830152610ff981610fbd565b9050919050565b60008190508160005260206000209050919050565b60006020601f8301049050919050565b600082821b905092915050565b6000600883026110627fffffffffffffffffffffffffffffffffffffffffffffffffffffffffffffffff82611025565b61106c8683611025565b95508019841693508086168417925050509392505050565b6000819050919050565b60006110a96110a461109f84610b7d565b611084565b610b7d565b9050919050565b6000819050919050565b6110c38361108e565b6110d76110cf826110b0565b848454611032565b825550505050565b600090565b6110ec6110df565b6110f78184846110ba565b505050565b5b8181101561111b576111106000826110e4565b6001810190506110fd565b5050565b601f8211156111605761113181611000565b61113a84611015565b81016020851015611149578190505b61115d61115585611015565b8301826110fc565b50505b505050565b600082821c905092915050565b600061118360001984600802611165565b1980831691505092915050565b600061119c8383611172565b9150826002028217905092915050565b6111b582610a37565b67ffffffffffffffff8111156111ce576111cd610c14565b5b6111d88254610f63565b6111e382828561111f565b600060209050601f8311600181146112165760008415611204578287015190505b61120e8582611190565b865550611276565b601f19841661122486611000565b60005b8281101561124c57848901518255600182019150602085019450602081019050611227565b868310156112695784890151611265601f891682611172565b8355505b6001600288020188555050505b505050505050565b600060208201905081810360008301526112988184610e99565b905092915050565b7f4f6e6c792061646d696e2063616e20706572666f726d2074686973206163746960008201527f6f6e000000000000000000000000000000000000000000000000000000000000602082015250565b60006112fc602283610e88565b9150611307826112a0565b604082019050919050565b6000602082019050818103600083015261132b816112ef565b905091905056fea264697066735822122018f11a684c92381638441c3a7cab1f38083b7d42a28a5669b830f23e8e1c556a64736f6c63430008120033",
  "linkReferences": {},
  "deployedLinkReferences": {}
}